:0A02CF003F065B4F666D7D077F6FF1
:0302E300010C000B
:040298007FE87E037A
:0B029C00EF1FAC0670011E4C70F62234
:1001690020B11012029820B107AD0C7F0112027F55
:1001790030B1FD20B01012029820B0077F011202A1
:100189005D8F0C30B0FD20B21512029820B20C051B
:100199000CE50CD394FF4003E4F50C30B2FD20B319
:0E01A9000C12029820B303E4F50C30B3FD22D3
:10008F00E50CFB7C037DE8FF7E0012011474CF2F7B
:10009F00F58274023EF583E493F5087C037DE8AFA7
:1000AF00037E00120114AA04AB057D647C00AF032C
:1000BF00AE0212011474CF2FF58274023EF583E461
:1000CF0093F5097D647C00AF03AE02120114AA04FC
:1000DF00AB057D0A7C00AF03AE0212011474CF2F63
:1000EF00F58274023EF583E493F50A7D0A7C00AF36
:1000FF0003AE0212011474CF2DF58274023CF58306
:05010F00E493F50B2252
:1001F800E4FDED14600E14601314601424037016EB
:10020800C2A28002D2A2C2A3C2A4800AC2A2800251
:10021800D2A2D2A3C2A4C374039D2408F8E6F58031
:0E0228007F647E0012029CE4F5800DBD04C4CC
:0102360022A5
:0B02C40012016912008F1201F880F592
:0502B6001202BBD2A101
:0802BB007F017E02DEFEDFFA86
:0102C3002218
:0F02A700D2A01202B6C2A01202BBC2A10202BBB9
:0A02D900C2A01202B6D2A00202BBBE
:0201B700AD0792
:1001B900E4FBFAEDC4131313540124FF92A0ED25B7
:1001C900E0FD1202B6C2A11202BB0BBB08E5D2A028
:1001D9001202BBD2A130A00F0AEAD394C840F6C2DA
:0E01E900A11202BB7F0022C2A11202BB7F0145
:0101F70022E5
:10023700E4FDFCD2A01202BBD2A11202BBEC25E066
:10024700FCA2A0E43342041202BBC2A11202BB0DFE
:05025700BD08E5AF0445
:01025C00227F
:10027F00AC05A9071202A77FA01201B7AF011201A7
:09028F00B7AF041201B70202D955
:02025D00AC07EC
:10025F001202A77FA01201B7AF041201B71202A7B3
:0F026F007FA11201B7120237AD071202D9AF05F6
:01027E00225D
:03000000020003F8
:0C000300787FE4F6D8FD75810C02004AFD
:10011400BC000BBE0029EF8DF084FFADF022E4CCCF
:10012400F875F008EF2FFFEE33FEEC33FCEE9DEC98
:10013400984005FCEE9DFE0FD5F0E9E4CEFD22EDDE
:10014400F8F5F0EE8420D21CFEADF075F008EF2F28
:10015400FFED33FD4007985006D5F0F222C398FD19
:050164000FD5F0EA22B6
:10000F000202C4E493A3F8E493A34003F68001F241
:10001F0008DFF48029E493A3F85407240CC8C333F2
:10002F00C4540F4420C8834004F456800146F6DFC1
:10003F00E4800B01020408102040809002E3E47E6C
:10004F00019360BCA3FF543F30E509541FFEE493B6
:10005F00A360010ECF54C025E060A840B8E493A37D
:10006F00FAE493A3F8E493A3C8C582C8CAC583CAA8
:10007F00F0A3C8C582C8CAC583CADFE9DEE780BE60
:0102E6000017
:00000001FF
