:0A01B3003F065B4F666D7D077F6F0E
:0301C500010C002A
:0B01A800EF1FAC0670011E4C70F62229
:10008F00E50CFB7C037DE8FF7E0012011474B32F97
:10009F00F58274013EF583E493F5087C037DE8AFA8
:1000AF00037E00120114AA04AB057D647C00AF032C
:1000BF00AE0212011474B32FF58274013EF583E47E
:1000CF0093F5097D647C00AF03AE02120114AA04FC
:1000DF00AB057D0A7C00AF03AE0212011474B32F7F
:1000EF00F58274013EF583E493F50A7D0A7C00AF37
:1000FF0003AE0212011474B32DF58274013CF58323
:05010F00E493F50B2252
:10016900E4FDED14600E146013146014240370167A
:10017900C2A28002D2A2C2A3C2A4800AC2A28002E1
:10018900D2A2D2A3C2A4C374039D2408F8E6F580C1
:0E0199007F647E001201A8E4F5800DBD04C451
:0101A7002235
:0801BD0012008F12016980F8A5
:03000000020003F8
:0C000300787FE4F6D8FD75810C02004AFD
:10011400BC000BBE0029EF8DF084FFADF022E4CCCF
:10012400F875F008EF2FFFEE33FEEC33FCEE9DEC98
:10013400984005FCEE9DFE0FD5F0E9E4CEFD22EDDE
:10014400F8F5F0EE8420D21CFEADF075F008EF2F28
:10015400FFED33FD4007985006D5F0F222C398FD19
:050164000FD5F0EA22B6
:10000F000201BDE493A3F8E493A34003F68001F249
:10001F0008DFF48029E493A3F85407240CC8C333F2
:10002F00C4540F4420C8834004F456800146F6DFC1
:10003F00E4800B01020408102040809001C5E47E8B
:10004F00019360BCA3FF543F30E509541FFEE493B6
:10005F00A360010ECF54C025E060A840B8E493A37D
:10006F00FAE493A3F8E493A3C8C582C8CAC583CAA8
:10007F00F0A3C8C582C8CAC583CADFE9DEE780BE60
:0101C8000036
:00000001FF
