:1000C20010083F065B4F666D7D077F6F777C395E58
:0200D200797142
:0B00D500EF1FAC0670011E4C70F622FD
:10008F00E4F518F519C2A2C2A3C2A4F518F51974A4
:10009F00082519F8E6F5807F507EC31200D50519A3
:1000AF00E51970020518C39410E518648094804018
:0300BF00DE80CD13
:03000000020003F8
:0C000300787FE4F6D8FD75811902004AF0
:10000F0002008FE493A3F8E493A34003F68001F278
:10001F0008DFF48029E493A3F85407240CC8C333F2
:10002F00C4540F4420C8834004F456800146F6DFC1
:10003F00E4800B01020408102040809000C2E47E8F
:10004F00019360BCA3FF543F30E509541FFEE493B6
:10005F00A360010ECF54C025E060A840B8E493A37D
:10006F00FAE493A3F8E493A3C8C582C8CAC583CAA8
:10007F00F0A3C8C582C8CAC583CADFE9DEE780BE60
:0100D400002B
:00000001FF
