:1000FC0010083F065B4F666D7D077F6F777C395E1E
:02010C00797107
:0B010F00EF1FAC0670011E4C70F622C2
:10008F00E4FDEDB40800504D90009EF8282873024F
:10009F0000B60200BA0200C20200C60200CE020081
:1000AF00D20200DA0200DEC2A28002D2A2C2A3C232
:1000BF00A48022C2A28002D2A2D2A3C2A48016C25E
:1000CF00A28002D2A2C2A3D2A4800AC2A28002D26C
:1000DF00A2D2A3D2A474092DF8E6F5807FA07E8664
:0C00EF0012010FE4F5800DED640870961E
:0100FB0022E2
:05011A0012008F80FBC4
:03000000020003F8
:0C000300787FE4F6D8FD75811702004AF2
:10000F0002011AE493A3F8E493A34003F68001F2EC
:10001F0008DFF48029E493A3F85407240CC8C333F2
:10002F00C4540F4420C8834004F456800146F6DFC1
:10003F00E4800B01020408102040809000FCE47E55
:10004F00019360BCA3FF543F30E509541FFEE493B6
:10005F00A360010ECF54C025E060A840B8E493A37D
:10006F00FAE493A3F8E493A3C8C582C8CAC583CAA8
:10007F00F0A3C8C582C8CAC583CADFE9DEE780BE60
:01010E0000F0
:00000001FF
